:020000040000FA
:100000008B01320080315D2880312000FF1F052BDD
:10001000882220002128FF3FFF3F080640100400EF
:100020005034413450345234303430345F344134FD
:1000300030343034303430343034303430343034A0
:10004000FF34911E432823009D1C2E2819081908EF
:100050009D01B9309D002C00A30143281D08F80024
:10006000190878192B28F800FF1A45282C000530AC
:100070008500A0302207840078081A00A20AA21284
:10008000A01EA00A5A28FF1E5A282000111E5A2816
:100090002C00A408031D502821001112FF125A2819
:1000A00005308500C0302507A50AA403840012008E
:1000B00023009A00FF1F0900FF349E0120002F300B
:1000C0008C003E308E0021002D308C000C308E00D4
:1000D00032003A309100F83092009D309300CF30DA
:1000E0009400DD309500FF309600230004308C0032
:1000F0000C308E00EC309F00CF309B0000309C0015
:10010000B9309D00A7309E0023308500EF30840079
:10011000FF301B00851A8928FF012000E13097007D
:1001200043309800C73096002100CD309700093049
:100130009D00A8309E009F012030F0003100151373
:1001400092019101003015140000000014071307FC
:10015000910FA3286400920AF00BA328FE00FF3938
:10016000031D7F177F1BFF1724008C018C012C00BF
:10017000A001A101A2015130A600023041210130AD
:1001800049217E0865222C0099019C013C005530D4
:100190008F00AA308F000F100030A4003D001430F3
:1001A000910020005530EC00AA30ED005A30EE00EE
:1001B000A530EF000000000000000000FF1F042336
:1001C000FF1B04202C00A008031D56216400FF1F04
:1001D000022B8031200055306C06AA3003196D06C1
:1001E0005A3003196E06A53003196F060319E0286B
:1001F000010005308700C03025078600A50A1600DB
:100200000800FF1F8B17080005308500A03021076C
:100210008400A10AA112A0031200F100080031001D
:100220001513151400000000910A0319920A13080F
:10023000F70014080800310095181B29151715142C
:10024000FF3EFF3E910A0319920A1308080031008D
:100250009518272991003100F0309200FF342721B2
:100260001600310095183129930015178B131515B9
:1002700055309600AA3096009514FF3E15110129BD
:100280000030A500A40084221E30492149212608FF
:10029000103EF1006A22F100A40A05308700C03048
:1002A0002507860071081E00A50AFF34042181314C
:1002B00000002308A30A0739820765296E297629D9
:1002C000862990296A2A952900000130A3001E3052
:1002D0007106031D832900000000FF344830A80088
:1002E0003F30A9006A220000FF3A7A296A22A6005C
:1002F000503AFC3903196D292303A00721021F3945
:10030000A1001E30F100FF1F032B672A6A22A40000
:100310000319A30AD63E03187C290430A500FF3434
:100320006A224D21A40BA303FF346A222808290462
:10033000031D65298D21F920F200FE20AA00F0009E
:100340000F398500FE20AB00F100840031009100E0
:100350000310700C9200910C2C00813100002608D3
:1003600003398207B629F828C229E4292C30F20083
:100370008030AA000D30AB003100803092000D308B
:1003800091002C0040217208023E49212A0849218F
:100390002B084921AA1FDA292A1ED5292B211B2126
:1003A0002C004921F20BCF29662A12004921F20BB9
:1003B000D529662A0310F20C0F212C004921770859
:1003C0004921F20BDC29662AAA1F002A2A1EF429D9
:1003D0002B212C00F92031211B2164002C00F92055
:1003E000F203F20BE929632AF9201A00F20BF4292F
:1003F000FF30A700632AFF3FFF3FFF3FFF3FFF3F64
:1004000004302A060319672A8B01FF173100E030F8
:1004100011059100F000E0012030F3000530850067
:1004200020308400151315140000000013081A0072
:1004300014081A00910AF30B132A71083F39203E61
:10044000840016001A00F20B212A7008910015137F
:100450001516151555309600AA3096009514000013
:1004600000002030840015159516F2161200930036
:100470001200940072030319951255309600AA30A9
:100480009600951400000000910AF20B362A15110F
:100490006400E00A6019672A203084007008910027
:1004A0002030F3001513151400000000910A12000B
:1004B0001306031D252A12001406031D252AF30B1B
:1004C000522A00002C004021003049217B222C00C0
:1004D000A301FF347108A9060830F0000310A80C2E
:1004E000A90C031C772AA030A8060130A906F00B3E
:1004F0006E2A7108080029084B2128084B21A50104
:10050000FF16210011162C00FF30A800A900FF34AF
:1005100021002D308C00220020308E060C123D0070
:1005200014309100A50100000000FF34FF3FFF3FA1
:10053000FF3FFF3FFF3FFF3FFF3FFF3FFF3FFF3FCB
:10054000FF3FFF3FFF3FFF3FFF3FFF3FFF3FFF3FBB
:10055000FF3FFF3FFF3FFF3FFF3FFF3FFF3FFF3FAB
:10056000FF3FFF3FFF3FFF3FFF3FFF3FFF3FFF3F9B
:10057000FF3FFF3FFF3FFF3FFF3FFF3FFF3FFF3F8B
:10058000FF3FFF3FFF3FFF3FFF3FFF3FFF3FFF3F7B
:10059000FF3FFF3FFF3FFF3FFF3FFF3FFF3FFF3F6B
:1005A000FF3FFF3FFF3FFF3FFF3FFF3FFF3FFF3F5B
:1005B000FF3FFF3FFF3FFF3FFF3FFF3FFF3FFF3F4B
:1005C000FF3FFF3FFF3FFF3FFF3FFF3FFF3FFF3F3B
:1005D000FF3FFF3FFF3FFF3FFF3FFF3FFF3FFF3F2B
:1005E000FF3FFF3FFF3FFF3FFF3FFF3FFF3FFF3F1B
:1005F000FF3FFF3FFF3FFF3FFF3FFF3FFF3FFF3F0B
:1006000030303D00802B672A062B092821009001FD
:1006100030309100FF1E11120030920093019401BE
:10062000B0010830A000FF112200D4309700D8306C
:10063000980002309900FE3091006A3092002C0040
:1006400097019801FF3099009A019B01EF309C00BF
:10065000F5309F003D000230A1001630A4000330A9
:10066000A5002000AE309C0037309B00FF309E007C
:10067000FC309F00A001A101A201A3011730A70037
:100680001430E0001930E100E2000C30E3001430D7
:10069000E40040308B008B17FF34FF3FFF3FFF3FEC
:1006A000FF3FFF3FFF3FFF3FFF3FFF3FFF3FFF3F5A
:1006B000FF3FFF3FFF3FFF3FFF3FFF3FFF3FFF3F4A
:1006C000FF3FFF3FFF3FFF3FFF3FFF3FFF3FFF3F3A
:1006D000FF3FFF3FFF3FFF3FFF3FFF3FFF3FFF3F2A
:1006E000FF3FFF3FFF3FFF3FFF3FFF3FFF3FFF3F1A
:1006F000FF3FFF3FFF3FFF3FFF3FFF3FFF3FFF3F0A
:100700002000A019C625911CB52B911000250318B7
:10071000AA252000E00BB52B1430E0007F1EF02D41
:100720005925E10BB52B1930E100A015FF19E30B9A
:10073000A22B0C30E3000130A00620052A30031D57
:10074000F030A200E40BA72BE40A0E10A201E2088D
:10075000031DB42B0730A705031DA703031DB42BEE
:10076000B42522000E1C1725BE2520002019BB2B06
:10077000921A6925C22B901EC22B90123225B00806
:1007800003199525E928FF3FFF3FFF3FFF3FFF3F4C
:10079000FF3FFF3FFF3FFF3FFF3FFF3FFF3FFF3F69
:1007A000FF3FFF3FFF3FFF3FFF3FFF3FFF3FFF3F59
:1007B000FF3FFF3FFF3FFF3FFF3FFF3FFF3FFF3F49
:1007C000FF3FFF3FFF3FFF3FFF3FFF3FFF3FFF3F39
:1009F000FF3FFF3FFF3FFF3FFF3FFF3FFF3F010044
:100A000020008C1E0B2DE21BE2030310E21BFF34BF
:100A1000E201A010FF34FF30E21FE20AE21BE20015
:100A20000310E21BA018FF34A0140314FF348B132F
:100A30002100101691013D00A101A401A501220091
:100A40008C018E01970198019101270020309200BE
:100A50009101980197019301990163000000000042
:100A60006400062B21003008063984008730850099
:100A700012009D001200840000308500B00A301C76
:100A80004C2D13001B02AB0000081C3BA7000030DC
:100A9000031CFF30A300FF349D141D19B00110008A
:100AA0002B071B000008273D1B000008233D80008A
:100AB000FF342100A21FA20AA21BA2030430A61F1A
:100AC000A607A61BA602AA1FAA07AA1BAA02200005
:100AD000FF349212950190122015A1080319911F5D
:100AE000862D1A08F0001908F1009A0199012100D9
:100AF000BF007008BE002C3C031CBE1B832D3F08AA
:100B0000BD003E08BC0022008E162000210BFF34E1
:100B10009C131430E400FF34031820343E08BC005A
:100B20003F08BD007F30BE00013422008E1220003D
:100B30002011211DA52D9C129C169C151C1D1C17F7
:100B40001C139C179113A101FF34A10803199C15D4
:100B5000A10AFF3420002030A207FF19A2012200C1
:100B600003190E10031D0E1420002208F0002308A4
:100B70002C009700700898002000FF3421000630F8
:100B800021020130203B031CFF15FF34A01121007E
:100B90000530AC00D930AD00EA30AE00AF01143002
:100BA000F1003D082D02F0003C082C3B0318AC007E
:100BB00070080318AD00AF0DAE0DAD0DAC0DF10B0F
:100BC000F033AC01AD012E08F0002F08AF1A203E23
:100BD000C039AF002C009A0070089B002000FF3441
:100BE0003C000330A1003D00193090001830910006
:100BF000A50121000C102400951A072E0730920041
:100C0000FE309400CA30950096019701951628266B
:100C10003C260319192E49262030272112003121A4
:100C20001B21220020308E066400F00B0E2EAA2518
:100C3000A20121000C1432003C000030A4003D0051
:100C40009001143091000330A5008B177F16C22B42
:100C50004926442650262030502669269101332EFD
:100C6000110891011A005426F00B302E11081A00B9
:100C700022000C122400FF34F0012109F0042209A3
:100C8000F0042309F00408008B1322000C16240042
:100C9000183420308400023085002030F000FF340A
:100CA000910000000000000022008E1666268E12C1
:100CB00066268E1666268E1266268E1666268E127C
:100CC00066268E1666268E122400FF340000000071
:100CD0000310FF34FF3FFF3FFF3FFF3FFF3FFF3F5A
:100CE000FF3FFF3FFF3FFF3FFF3FFF3FFF3FFF3F14
:100CF000FF3FFF3FFF3FFF3FFF3FFF3FFF3FFF3F04
:100D0000FF3FFF3FFF3FFF3FFF3FFF3FFF3FFF3FF3
:100D1000FF3FFF3FFF3FFF3FFF3FFF3FFF3FFF3FE3
:100D2000FF3FFF3FFF3FFF3FFF3FFF3FFF3FFF3FD3
:100D3000FF3FFF3FFF3FFF3FFF3FFF3FFF3FFF3FC3
:100D4000FF3FFF3FFF3FFF3FFF3FFF3FFF3FFF3FB3
:100D5000FF3FFF3FFF3FFF3FFF3FFF3FFF3FFF3FA3
:100D6000FF3FFF3FFF3FFF3FFF3FFF3FFF3FFF3F93
:100D7000FF3FFF3FFF3FFF3FFF3FFF3FFF3FFF3F83
:100D8000FF3FFF3FFF3FFF3FFF3FFF3FFF3FFF3F73
:100D9000FF3FFF3FFF3FFF3FFF3FFF3FFF3FFF3F63
:100DA000FF3FFF3FFF3FFF3FFF3FFF3FFF3FFF3F53
:100DB000FF3FFF3FFF3FFF3FFF3FFF3FFF3FFF3F43
:100DC000FF3FFF3FFF3FFF3FFF3FFF3FFF3FFF3F33
:100DD000FF3FFF3FFF3FFF3FFF3FFF3FFF3FFF3F23
:100DE000FF3FFF3FFF3FFF3FFF3FFF3FFF3FFF3F13
:100DF000FF3FFF3FFF3FFF3FFF3FFF3FFF3F010040
:100E00000934A9344934A1344D34A5344D34ED347A
:100E100005344034093440340D3480341134803486
:100E20001534C0341A3400341E34003422344034B3
:100E3000263440342A3480342E34C0343234C03422
:100E4000373400343B3400343F344034433480344E
:100E5000473480344B34C0344F34C03454340034BD
:100E6000583440345C3440346034803464348034EA
:100E70006834C0346D340034713400347534403417
:100E8000793440347D3480348134C0348534C03486
:100E90008A3400348E3400349234403496348034B2
:100EA0009A3480349E34C034A234C034A734003421
:100EB000AB344034AF344034B3348034B73480344E
:100EC000BB34C034C0340034C4340034C83440347B
:100ED000CC344034D0348034D434C034D834C034EA
:100EE000DD340034E1340034E5344034E934803416
:100EF000ED348034F134C034F534C034FA34003485
:100F0000FF3FFF3FFF3FFF3FFF3FFF3FFF3FFF3FF1
:100F1000FF3FFF3FFF3FFF3FFF3FFF3FFF3FFF3FE1
:100F2000FF3FFF3FFF3FFF3FFF3FFF3FFF3FFF3FD1
:100F3000FF3FFF3FFF3FFF3FFF3FFF3FFF3FFF3FC1
:100F4000FF3FFF3FFF3FFF3FFF3FFF3FFF3FFF3FB1
:100F5000FF3FFF3FFF3FFF3FFF3FFF3FFF3FFF3FA1
:100F6000FF3FFF3FFF3FFF3FFF3FFF3FFF3FFF3F91
:100F7000FF3FFF3FFF3FFF3FFF3FFF3FFF3FFF3F81
:100F8000FF3FFF3FFF3FFF3FFF3FFF3FFF3FFF3F71
:100F9000FF3FFF3FFF3FFF3FFF3FFF3FFF3FFF3F61
:100FA000FF3FFF3FFF3FFF3FFF3FFF3FFF3FFF3F51
:100FB000FF3FFF3FFF3FFF3FFF3FFF3FFF3FFF3F41
:100FC000FF3FFF3FFF3FFF3FFF3FFF3FFF3FFF3F31
:100FD000FF3FFF3FFF3FFF3FFF3FFF3FFF3FFF3F21
:100FE000FF3FFF3FFF3FFF3FFF3FFF3FFF3FFF3F11
:100FF000FF3FFF3FFF3FFF3FFF3FFF3FFF3F01003E
:10904000FF00FF00FF00FF00FF00FF00FF00FF0028
:10905000FF00FF00FF00FF00FF00FF00FF00FF0018
:10906000FF00FF00FF00FF00FF00FF00FF00FF0008
:10907000FF00FF00FF00FF00FF00FF00FF00FF00F8
:020000040001F9
:08000000FF3FFF3FFF3FFF3F00
:02000E008C174D
:06001000FA35FF1FFF3F5F
:00000001FF
